:100000000C9422290C9453290C9453290C945329B1
:100010000C9453290C9453290C9453290C94532970
:100020000C9453290C9453290C9453290C94532960
:100030000C9453290D949B090C9453290C94532927
:100040000C9453290C944BA80C9453290C945329C9
:100050000C9453290C9453290C94BAA00D94D00FEE
:100060000C9453290C94C87B0C94927B0C945329C8
:100070000C9453290C9453290C9453290C94532910
:100080000C9453290C9453290C9453290C94532900
:100090000C9453290C9453290C9453290C945329F0
:1000A0000C9453290C9453290C9453290C945329E0
:1000B0000C9453290C9453290C9453290C945329D0
:1000C0000C9453290C9453290C9453290C945329C0
:1000D0000C9453290C9453290C9453290C945329B0
:1000E0000C945329084AD73B3BCE016E84BCBFFD1C
:1000F000C12F3D6C74319ABD56833DDA3D00C77FF8
:1001000011BED9E4BB4C3E916BAAAABE0000008090
:100110003F05A84CCDB2D44EB93836A9020C50B91F
:10012000918688083CA6AAAA2ABE000000803F004B
:100130000C94AF590C94FA480C94612A0C94EB2E51
:100140000C944B340C949E6D0C945D340C94D158EB
:100150000C9491C90C94682B0C9476EE0C9489EE57
:100160000D942A0B0C948C590C94B66D0C94665A11
:100170000C943F410C94027C0C94D09A0C94216412
:100180000C94092A0C9455290C94352A0C948B5AFA
:100190000C9410990C9463410C946E3E0C941C5A70
:1001A0000C94ED4C0C94013D0C9438970C94D62C87
:1001B0000C948A6D0C948A420C945A7C0C94976D22
:1001C0000C94527C0C9457340C94B96D0C9480EEC2
:1001D0000C940FEF0C94042E0C9481340C945A342C
:1001E0000C945EEE0C9422470C944B410C946734B3
:1001F0000C94482A0C94415A0C94F7590C945D9431
:100200000C94407C0C94F0290C9457EE0C94904282
:100210000C949C290D94200B0C9404960D94FD0ACB
:100220000C9468EE0C94D8960C9453410C945F6D2A
:100230000C94A2420C94916D0D94C92A0C948F3D9C
:100240000C9462340D94F30A0C94CDCA0C949B6DFB
:100250000C948AEE0C94A02E0C943D340C94946D66
:100260000C948D2A0C943CA10C9467590C94AC6DA1
:100270000C94A86D0C94AE420C948EEE0C945F41DD
:100280000C94CF950C94302E0C945E7C0C94CD2C59
:100290000C94342E0C9445DD0C94FA5A0C9435D5FC
:1002A0000C944F2E0C94262E0C94FD580C941D5932
:1002B0000C94172E0C94DF9A0C9447410C94772BD6
:1002C0000C9425470C9415990D94160B0C94A56D60
:1002D0000C94EF2C0C942E2E0C944B7C0C944FEE23
:1002E0000D94BB0A0C947F4F0C94002E0D94070BB9
:1002F0000C945A6D0C94DA3F0C949C420C943297F7
:100300000C94DA9A0C946A7C0C9418340D943E0B7D
:100310000C9464340C94FCED0C94912E0C94B05A13
:100320000C9426550C941E5B0C9453EE0C9438E1FF
:100330000C942C2E0C9484420C945BEE0C94A26DC5
:100340000C94222A0C94627C0C946B380D94AE0AA7
:100350000C942A2E0C94D55A0C94E0DE0C947CEE6E
:100360000C94384C0C9461350C948D6D0D94B60A38
:100370000C94F2950C94BCD10D94E10A0C943E9728
:100380000C941A990C94A3D10C94317C0C941443C2
:100390000C9464EE0C9443410C94322E0D94C50AD7
:1003A0000C9451650C94FEED0D941D230C946EEE8F
:1003B0000C94FB950D94CF0A0C94282E0C94483481
:1003C0000C9484EE0C94A8420C94567C0C9449EE48
:1003D0000C9457410C9424990C942C970C947E42C5
:1003E0000C94D2590C946A3C0C94AF6D0D94D90ABC
:1003F0000C9496420C947A2B0C94FBED0C94279859
:100400000C94D52B0C9487310C94D6960C945B41AC
:100410000C9442590C94DC2E0C94892C0C94B26DE3
:100420000C94FC2D0D94340B0C9454340C947A2AB7
:100430000C94D42B0C9426970C941F990C944F4138
:100440000C941E4E0C94CD440C94D5290C94D59A42
:100450000C9451340C9428470C944E340D94E90AB2
:100460000D94480B0C941CE00C9472EE4E414E49D6
:100470004E495459494E46CDCCCC3D0AD7233C1762
:10048000B7D13877CC2B329595E6241FB14F0A00AF
:100490000020410000C84200401C4620BCBE4CCA9F
:1004A0001B0E5AAEC59D7400407A10F35A00A0721C
:1004B0004E18090010A5D4E80000E876481700009F
:1004C000E40B54020000CA9A3B000000E1F505006D
:1004D0000080969800000040420F000000A08601B6
:1004E000000000102700000000E803000000006486
:1004F00000000000000A00000000000100000000F1
:10050000002C76D888DC674F0823DFC1DFAE59E1C5
:10051000B1B796E5E3E453C63AE651997696E8E634
:10052000C28426EB898C9B62ED407C6FFCEFBC9C07
:100530009F40F2BAA56FA5F490055A2AF75C936B19
:100540006CF9676DC11BFCE0E40D47FEF520E6B5D4
:1005500000D0ED902E0300943577050080841E08AE
:100560000000204E0A000000C80C333333330F98CC
:100570006E12831141EF8D2114893BE65516CFFE93
:10058000E6DB18D1844B381BF77C1D901DA4BBE41F
:1005900024203284725E228100C9F124ECA1E53D61
:1005A000275A325F535445505F50494E005A325FCC
:1005B0004D494E5F50494E005A325F454E41424CC4
:1005C000455F50494E005A325F4449525F50494E90
:1005D000005A5F53544F505F50494E005A5F535476
:1005E00045505F50494E005A5F4D494E5F50494E4D
:1005F000005A5F454E41424C455F50494E005A5F9C
:100600004449525F50494E00595F53544F505F5018
:10061000494E00595F535445505F50494E00595F51
:100620004D494E5F50494E00595F454E41424C4541
:100630005F50494E00595F4449525F50494E00583F
:100640005F53544F505F50494E00585F53544550CC
:100650005F50494E00585F4D494E5F50494E00581B
:100660005F4D41585F50494E00585F454E41424CE6
:10067000455F50494E00585F4449525F50494E0013
:1006800053535F50494E00534552564F335F5049C4
:100690004E00534552564F325F50494E005345521B
:1006A000564F315F50494E00534552564F305F50C0
:1006B000494E00534453530053445F44455445430B
:1006C000545F50494E0053434B5F50494E005241D6
:1006D0004D50535F44395F50494E0052414D505385
:1006E0005F44385F50494E0052414D50535F443192
:1006F000305F50494E004D4F53495F50494E004DB9
:1007000049534F5F50494E004D4158363637355F9B
:1007100053535F50494E004C45445F50494E004C86
:1007200043445F50494E535F5253004C43445F5023
:10073000494E535F454E41424C45004C43445F5047
:10074000494E535F4437004C43445F50494E535F1A
:100750004436004C43445F50494E535F4435004C8F
:1007600043445F50494E535F4434004B494C4C5F07
:1007700050494E004845415445525F4245445F5000
:10078000494E004845415445525F305F50494E0044
:1007900046494C5F52554E4F55545F50494E0046A6
:1007A000414E325F50494E0046414E315F50494EF6
:1007B0000046414E5F50494E0045315F535445500D
:1007C0005F50494E0045315F454E41424C455F50B8
:1007D000494E0045315F4449525F50494E00453112
:1007E0005F43535F50494E0045305F535445505F5F
:1007F00050494E0045305F454E41424C455F50499F
:100800004E0045305F4449525F50494E0045305FCD
:100810004155544F5F46414E5F50494E00455F4D34
:100820005558325F50494E00455F4D5558315F5025
:10083000494E00455F4D5558305F50494E00444F7A
:10084000474C43445F53434B00444F474C43445F42
:100850004D4F534900434F4E54524F4C4C45525FFD
:1008600046414E5F50494E0042544E5F454E430054
:1008700042544E5F454E320042544E5F454E310069
:100880004245455045525F50494E004156525F53D4
:10089000535F50494E004156525F53434B5F50499E
:1008A0004E004156525F4D4F53495F50494E0041F3
:1008B00056525F4D49534F5F50494E005458443093
:1008C000005258443000434F4D4D554E494341541A
:1008D000494F4E0044525952554E004552524F52C4
:1008E0005300494E464F004543484F00D092D0AB8D
:1008F000D093D0A0D0A3D097D09AD09020D0A4D01D
:1009000098D09BD090D09CD095D09DD0A2D0900074
:10091000D097D090D093D0A0D0A3D097D09AD09099
:1009200020D0A4D098D09BD090D09CD095D09DD0F2
:10093000A2D0900046494C414D454E542043484179
:100940004E4745004572726F722077726974696E06
:100950006720746F20454550524F4D210A003637AD
:1009600026032B3C3D382A2E303E1224221E1A1C10
:100970001808440A2C430809072C07000162757304
:10098000793A2070617573656420666F7220696EB4
:100990007075740A00627573793A207061757365B9
:1009A0006420666F7220757365720A0062757379D0
:1009B0003A2070726F63657373696E670A004D3613
:1009C000303000D09ED0A1D0A2D090D09DD09ED06B
:1009D00092D09BD095D09DD09E2E20005072696EF3
:1009E0007465722073746F7070656420647565201F
:1009F000746F206572726F72732E2046697820744E
:100A00006865206572726F7220616E64207573650F
:100A1000204D39393920746F207265737461727496
:100A20002E202854656D7065726174757265206939
:100A3000732072657365742E205365742069742069
:100A400061667465722072657374617274696E6731
:100A5000290A004E6F20436865636B73756D2077BC
:100A6000697468206C696E65206E756D6265722CA4
:100A7000204C617374204C696E653A20004E6F20E3
:100A8000436865636B73756D2077697468206C6962
:100A90006E65206E756D6265722C204C61737420DA
:100AA0004C696E653A2000636865636B73756D20F1
:100AB0006D69736D617463682C204C617374204C94
:100AC000696E653A20004C696E65204E756D6265F1
:100AD00072206973206E6F74204C617374204C69AE
:100AE0006E65204E756D6265722B312C204C6173E2
:100AF00074204C696E653A20004D3131300053440A
:100B00002072656164206572726F720A0021212073
:100B10004B494C4C20636175736564206279204BAE
:100B2000494C4C20627574746F6E2F70696E0A00A8
:100B30002121204B494C4C20636175736564206210
:100B40007920746F6F206D75636820696E616374BE
:100B50006976652074696D65202D206375727265F4
:100B60006E7420636F6D6D616E643A2000D0A1D009
:100B7000B4D0B5D0BBD0B0D0B9D182D0B520D1815E
:100B8000D0B1D180D0BED18100D09FD0A0D098D09C
:100B90009DD0A2D095D0A020D09ED0A1D0A2D090A0
:100BA000D09DD09ED092D09BD095D09D0025533A19
:100BB00020255300D0A3D091D098D0A2D09E2E2033
:100BC000005072696E7465722068616C7465642E81
:100BD000206B696C6C28292063616C6C6564210A48
:100BE000006563686F3A004572726F723A00486F31
:100BF00074656E6420746F6F20636F6C640A0053B9
:100C0000656E64204D31303820746F2072657375C5
:100C10006D650A00496E736572742066696C616D5A
:100C2000656E7420616E642073656E64204D313092
:100C3000380A0053656E64204D31303820746F20BF
:100C400068656174206E6F7A7A6C650A00496E730C
:100C50006572742066696C616D656E7420616E6486
:100C60002073656E64204D3130380A003D003F200E
:100C700061646472657373203A2000206279746540
:100C800073206F66206D656D6F727920696E69746F
:100C900069616C697A65642E0A0A00556E61626C3E
:100CA0006520746F20696E697469616C697A652E5C
:100CB0000A0A00496E697469616C697A696E672015
:100CC00066726565206D656D6F727920626C6F6309
:100CD0006B2E0A0A0A00747275650A002072657428
:100CE00075726E3D000A4D656D6F727920436F72AB
:100CF00072757074696F6E20646574656374656481
:100D000020696E2066726565206D656D6F72792051
:100D1000617265612E0A002020626C6F636B5F66F2
:100D20006F756E643D002020200A002920666F75D3
:100D30006E643D002028002020204D656D6F727983
:100D400020636F7272757074696F6E20646574656C
:100D500063746564207769746820656E645F667289
:100D600065655F6D656D6F72793C486561700A00FD
:100D700020656E645F667265655F6D656D6F727923
:100D8000203C204865617020002020656E645F660D
:100D90007265655F6D656D6F72793D000A6672659B
:100DA000655F6D656D6F72795F73746172743D001C
:100DB0000A666D632829206E3D00636865636B5F7A
:100DC000666F725F667265655F6D656D6F72795F84
:100DD000636F7272757074696F6E2829203D2000F0
:100DE0004D313030204620002062797465732061D7
:100DF0007420000A4C6172676573742066726565C1
:100E000020626C6F636B20697320000A4D656D6F03
:100E1000727920436F7272757074696F6E206465A9
:100E200074656374656420696E2066726565206D03
:100E3000656D6F727920617265612E0A002062799A
:100E400074657320667265652061742000466F7555
:100E50006E6420000A436F7272757074696E672049
:100E6000616464726573733A2000436F72727570C7
:100E700074696E672066726565206D656D6F727945
:100E800020626C6F636B2E0A0A000A537461636BF5
:100E900020506F696E746572202020202020202051
:100EA000203A20000A667265655F6D656D6F727924
:100EB0005F656E64202020202020203A20000A66F2
:100EC0007265655F6D656D6F72795F737461727461
:100ED00020202020203A20000A6273735F656E6430
:100EE0002020202020202020202020202020203AE8
:100EF000200050574D3A20202534640050574D3A79
:100F000020202534640050574D3A202025346400B9
:100F100050574D3A20202534640050574D3A202038
:100F20002534640050574D3A202025346400505732
:100F30004D3A20202534640050574D3A2020253466
:100F4000640050574D3A20202534640050574D3AE4
:100F500020202534640050574D3A20202534640069
:100F600050574D3A20202534640050574D3A2020E8
:100F70002534640050574D3A2020253464005057E2
:100F80004D3A20202534640050574D3A2020253416
:100F900064003A200020202020434F4D00202020D4
:100FA0006E6F6E2D7374616E646172642050574D64
:100FB000206D6F646500202020636F6D7061726525
:100FC00020696E7465727275707420656E61626CF2
:100FD0006564002020206F766572666C6F772069EB
:100FE0006E7465727275707420656E61626C656492
:100FF000003A20002020202054494D534B00423A13
:101000002000202020205443435200413A20002059
:1010100020202054434352002020202043533A20D4
:10102000002020202057474D3A200050574D3A20AD
:10103000202534640050574D3A2020253464004761
:10104000004800000088008A008C00B300B4000053
:101050000098009A009C00A800AA00AC0028012A71
:10106000012C012020202054494D455200440045C8
:10107000006E00800081006F00B000B10070009031
:101080000091007100A000A10072002001210173F5
:101090000020697320616C736F207469656420742B
:1010A0006F20746869732070696E0054494D455211
:1010B0003143000A202E002020002020506F72743F
:1010C0003A200020202000202020416E616C6F67B4
:1010D00020696E203D2025356C64003C756E75736B
:1010E00065642F756E6B6E6F776E3E00202841250C
:1010F000326429202000253364200050494E3A20D4
:10110000004F7574707574203D2000496E707574C1
:1011100020203D2000416E616C6F6720696E203D8C
:101120002025356C640070726F746563746564208B
:101130000020284125326429202000253364200026
:1011400050494E3A2000C1080001BC080101AF0817
:101150003201A2083301960834018B08350180085A
:10116000250178081F01700821016808230155082E
:101170000701490833013E083401330828012808D3
:101180002A011D082C010D082C0102081C01F4077E
:101190001801E8071A01DE072C01D3072201C50751
:1011A0001E01B9072401B1070901A80707019F071C
:1011B0002C019007130183070A01740708016B07CC
:1011C00029015F0717015307190147071B013B0757
:1011D0001D012B0711011F07100117070D0108073B
:1011E0004201FF063201F6063301E8060A01DB067A
:1011F0000801CE060901C6063401B8063101B3065E
:101200003501A8060B019D06060192060501870619
:1012100004018006350176063701690626015F065E
:101220002B01550603014A0636013F060301350628
:101230003D01280638011E062A0113063C01080656
:101240002A01FE053001F1053E01E7051201DC052A
:101250002E01D1051201C6052201B8051E01AD05FA
:101260002B01A1052401446F6E652E0A0050756C98
:1012700073696E6720202000556E746F7563686512
:10128000642000534552564F206E6F74207365746E
:101290002075702E0A005761746368696E6720704C
:1012A000696E730A0064697300656E0061626C6543
:1012B000640A00656E6473746F70206D6F6E69747C
:1012C0006F7220004D3630303A20D09DD0B8D0B764
:1012D000D0BAD0B0D18F20D0A200486F74656E64B0
:1012E00020746F6F20636F6C640A0020496E766112
:1012F0006C6964206578747275646572200020746E
:101300006F6F206C6F6E6720657874727573696F8C
:101310006E2070726576656E7465640A0020636F76
:101320006C6420657874727573696F6E2070726575
:1013300076656E7465640A0047322F473320626118
:101340006420706172616D65746572730A00D0A16A
:10135000D0BED0BD2E2E2E0053696D756C617465A4
:101360006420486F6D696E670A00D09FD180D0BE3F
:10137000D0B4D0BED0BBD0B6D0B8D182D18C2E2EB6
:101380002E00D09DD0B5D18220D0B4D0B2D0B8D06C
:10139000B6D0B5D0BDD0B8D18F2E00456E642066D2
:1013A000696C65206C6973740A00426567696E2018
:1013B00066696C65206C6973740A00286E6F20661C
:1013C000696C65290043757272656E742066696C7C
:1013D000653A20005344207072696E74696E67200C
:1013E0006279746520004E6F7420534420707269D6
:1013F0006E74696E670A002E0A0044656C65746934
:101400006F6E206661696C65642C2046696C653A74
:10141000200046696C652064656C657465643A00FB
:101420005072696E742074696D653A2000496E7659
:10143000616C69642050696E204D6F64650A000A12
:1014400053746174733A2046696C616D656E7420E3
:10145000757365643A20002C204C6F6E6765737459
:10146000206A6F623A2000546F74616C2074696D59
:10147000653A200053746174733A20002C20466151
:10148000696C65643A20002C2046696E6973686552
:10149000643A20005072696E74733A20005374618C
:1014A00074733A2000D09ED185D0BBD0B0D0B6D0D6
:1014B000B4D0B5D0BDD0B8D0B52E2E2E00D09DD092
:1014C000B0D0B3D180D0B5D0B22E2E2E004520257D
:1014D00053006F6B006F666600E708E208DB08D414
:1014E00008C60844454255473A004D313133205330
:1014F00000D0A8D0B0D0B9D182D0B0D0BD204F4656
:10150000462E004348414D4245525F54454D50459B
:10151000524154555245004D4F54494F4E5F4D4F27
:1015200044455300544845524D414C5F50524F542E
:10153000454354494F4E004155544F5245504F5228
:10154000545F53445F5354415455530050524F4DD0
:1015500050545F535550504F525400454D455247DB
:10156000454E43595F504152534552004341534504
:101570005F4C494748545F4252494748544E45538F
:101580005300544F47474C455F4C4947485453001C
:10159000534F4654574152455F504F5745520042B2
:1015A00055494C445F50455243454E54004C4556B6
:1015B000454C494E475F44415441005A5F50524F99
:1015C0004245004155544F4C4556454C00505249F8
:1015D0004E545F4A4F420050524F475245535300BA
:1015E0004155544F5245504F52545F54454D500051
:1015F000564F4C554D455452494300454550524F66
:101600004D0042494E4152595F46494C455F545244
:10161000414E534645520053455249414C5F584F45
:101620004E5F584F4646004649524D574152455F1E
:101630004E414D453A4D61726C696E20322E302E0E
:10164000352E332028646176696472616D69726F2A
:101650002C2047697468756229204D41524C494ECF
:101660002D4149334D5F56455253494F4E3A7632DC
:101670002E302E3120534F555243455F434F444542
:101680005F55524C3A68747470733A2F2F676974BF
:101690006875622E636F6D2F646176696472616D27
:1016A00069726F2F4D61726C696E2D4169334D2DDA
:1016B000322E302E782050524F544F434F4C5F56AD
:1016C000455253494F4E3A312E30204D41434849FF
:1016D0004E455F545950453AD0A8D0B0D0B9D182C8
:1016E000D0B0D0BD2045585452554445525F434F69
:1016F000554E543A3120555549443A636564653234
:101700006132662D343161322D343734382D3962EF
:1017100031322D6335356336326633363766660AC5
:10172000002F2F20004D31343520533C696E646505
:10173000783E206F7574206F662072616E67652039
:1017400028302D31290A00205200416363656C6501
:10175000726174696F6E3A2050003F4A206F757451
:10176000206F662072616E67652028302E30312030
:10177000746F20302E33290A0020580020204D613C
:10178000783A2000200020204D696E3A2000536FE7
:10179000667420656E6473746F70733A20004652ED
:1017A0003A0020466C6F773A200050726F74656380
:1017B0007465642050696E0A0020643A0020693A1A
:1017C0000020703A00496E76616C69642065787417
:1017D00072756465720A0020643A0020693A00203C
:1017E000703A0064697300656E0043290A00616203
:1017F0006C656420286D696E2074656D70200043EF
:101800006F6C6420657874727564657320617265AD
:1018100020004F4646004F4E0046696C616D656E74
:10182000742072756E6F75742000D09AD0BED1800E
:10183000D180D0B5D0BAD186D0B8D0B820D0BFD161
:1018400080D0B8D0BCD0B5D0BDD0B5D0BDD18B0084
:101850004572723A20546F6F206661722100546F96
:101860006F206661722066726F6D207265666572A8
:10187000656E636520706F696E740A00454550524D
:101880004F4D204F4B0A00205A323A004475616C8C
:1018900020456E6473746F702041646A7573746D53
:1018A000656E7420286D6D293A20004D3838382037
:1018B000636F6F6C646F776E20726F7574696E659D
:1018C00020646F6E650A00546172676574206E6FE4
:1018D0007420726561636865642C20717565756537
:1018E0006420616E206172630A00556C74726162DB
:1018F00061736520636F6F6C646F776E20737461C2
:10190000727465640A002E0A002028302D313029B7
:10191000002076616C7565206F7574206F6620728B
:10192000616E676500416476616E6365204B3D00C2
:10193000446F6E65207072696E74696E67206669A7
:101940006C650A004D3737004D333100496E7661C2
:101950006C69642065787472756465720A0043610D
:10196000703A00220A00656E7175657565696E676B
:101970002022006F6B00526573656E643A2000434D
:10198000616E6E6F74206F70656E2073756264692E
:101990007220002569730025696D20256973002573
:1019A00069682025696D20256973002569642025F3
:1019B00069682025696D20256973002569792025CE
:1019C0006964202569682025696D202569730020D8
:1019D000573A00D09ED185D0BBD0B0D0B6D0B4D0CD
:1019E000B5D0BDD0B8D0B520D181D182D0BED0BBCA
:1019F000D0B02E2E2E00D09DD0B0D0B3D180D0B597
:101A0000D0B220D181D182D0BED0BBD0B02E2E2E6C
:101A10000023646566696E652044454641554C5413
:101A20005F00626564004B6420004B6920004B70CE
:101A30002000504944204175746F74756E652066AE
:101A4000696E6973686564212050757420746865D7
:101A5000206C617374204B702C204B6920616E6484
:101A6000204B6420636F6E7374616E7473206672B2
:101A70006F6D2062656C6F7720696E746F20436FA5
:101A80006E66696775726174696F6E2E680A0050C0
:101A90004944204175746F74756E65206661696C88
:101AA0006564212074696D656F75740A005049443E
:101AB000204175746F74756E65206661696C65642C
:101AC000212054656D706572617475726520746F44
:101AD0006F20686967680A00204B643A2000204B39
:101AE000693A2000204B703A20000A20436C617351
:101AF00073696320504944200A00204B643A200057
:101B0000204B693A2000204B703A20000A204E6F8B
:101B1000206F76657273686F6F740A002054753A8F
:101B20002000204B753A2000206D61783A2000207B
:101B30006D696E3A200020643A200020626961736A
:101B40003A2000504944204175746F74756E6520C9
:101B500073746172740A00504944204175746F7443
:101B6000756E65206661696C6564212054656D70D1
:101B70006572617475726520746F6F20686967683B
:101B80000A00504944204175746F74756E65206673
:101B900061696C65642120426164206578747275A6
:101BA000646572206E756D6265720A004572723AE4
:101BB000207574663820666F6E74206E6F742069AD
:101BC0006E697469616C697A65642E004572723A57
:101BD000207574663820666F6E74206E6F7420698D
:101BE0006E697469616C697A65642E004572723A37
:101BF000207574663820666F6E74206E6F7420696D
:101C00006E697469616C697A65642E002568753A3D
:101C100025303268750025303268753A25303268D3
:101C20007500256875642025303268753A25303294
:101C3000687500D092D18BD0B3D180D183D0B7D08A
:101C4000BAD0B020D0BCD0BC00D097D0B0D0B3D1E7
:101C500080D183D0B7D0BAD0B020D0BCD0BC00D017
:101C600094D0B8D0B0D0BCD0B5D182D18020D184AE
:101C7000D0B8D0BBD0B0D0BCD0B5D0BDD182D0B060
:101C8000004520D0B220D0BCD0BCC2B3004B20D085
:101C9000BFD180D0BED0B4D0B2D0B8D0B6D0B5D03D
:101CA000BDD0B8D18F00200820D0A4D0B0D0BAD1F8
:101CB00082D0BED18000200820D09CD0B0D0BAD134
:101CC0008100200820D09CD0B8D0BD00D092D18B0C
:101CD000D0BAD0BB00D092D0BAD0BB00D090D0B296
:101CE000D182D0BED182D0B5D0BCD0BFD0B5D1804A
:101CF000D0B0D182D183D180D0B00056D0BFD183B3
:101D0000D182D0B5D1882E20D0BCD0B8D0BD00565D
:101D1000D0BCD0B8D0BD0056D0BCD0B0D0BAD181E4
:101D200020450056D0BCD0B0D0BAD181205A005640
:101D3000D0BCD0B0D0BAD18120590056D0BCD0B0E0
:101D4000D0BAD18120580041D0BCD0B0D0BAD18116
:101D500020450041D0BCD0B0D0BAD181205A00413A
:101D6000D0BCD0B0D0BAD18120590041D0BCD0B0C5
:101D7000D0BAD181205800412DD0BFD183D182D09B
:101D8000B5D1882E00412DD0B2D182D18FD0B3D021
:101D9000B8D0B2D0B0D0BDD0B8D0B500D0A3D1812A
:101DA000D0BAD0BED180D0B5D0BDD0B8D0B5004A61
:101DB000756E6374696F6E204465760045D188D076
:101DC000B0D0B32FD0BCD0BC005AD188D0B0D0B3E3
:101DD0002FD0BCD0BC0059D188D0B0D0B32FD0BC4C
:101DE000D0BC0058D188D0B0D0B32FD0BCD0BC006C
:101DF000D094D180D183D0B3D0B8D0B520D0BDD0CD
:101E0000B0D181D182D180D0BED0B9D0BAD0B80003
:101E10003F00D09ED182D0BCD0B5D0BDD0B000D0D4
:101E200098D0BDD0B8D186D0B8D0B0D0BBD0B8D0C3
:101E3000B7D0B0D186D0B8D18F004D34323800D071
:101E400098D0B7D0BDD0B0D187D0B0D0BBD18CD0D6
:101E5000BDD18BD0B920454550524F4D00D0A4D0B4
:101E6000B8D0BBD0B0D0BCD0B5D0BDD18200D0A24C
:101E7000D0B5D0BCD0BFD0B5D180D0B0D182D183C5
:101E8000D180D0B000D0A8D0B0D0B32FD0BCD0BCBF
:101E900000D0A0D18BD0B2D0BED0BA00D0A3D18117
:101EA000D0BAD0BED180D0B5D0BDD0B8D0B500D0DA
:101EB00091D18BD181D182D180D0BED182D0B000DE
:101EC000D097D0B0D0BFD0BED0BCD0BDD0B8D1821A
:101ED000D18C20D0BFD0B0D180D0BAD0BED0B2D0BB
:101EE000BAD18300D09DD0B0D181D182D180D0BE73
:101EF000D0B9D0BAD0B800D0A1D182D0BED0BB006A
:101F0000D0A1D0BED0BFD0BBD0BE00D09AD183D09C
:101F1000BBD0B5D18000D09DD0B0D181D182D1804D
:101F2000D0BED0B9D0BAD0B800D097D0B0D0B3D14D
:101F300080D183D0B7D0B8D182D18C20D0BDD0B0E1
:101F4000D181D182D180D0BED0B9D0BAD0B800D0A2
:101F500092D0B5D180D0BDD183D182D18C20D0BDDB
:101F6000D0B0D181D182D180D0BED0B9D0BAD0B8D2
:101F700000D0A1D0BED185D180D0B0D0BDD0B8D155
:101F800082D18C20D0BDD0B0D181D182D180D0BEC1
:101F9000D0B9D0BAD0B800D09DD0B0D0B3D180D015
:101FA000B5D0B2205045544720D0BFD180D0B0D05A
:101FB000B2D0BAD0B000D09DD0B0D0B3D180D0B51F
:101FC000D0B220504C4120D0BFD180D0B0D0B2D0C0
:101FD000BAD0B000D092D18BD0BAD0BB00D092D0C2
:101FE000BAD0BB0052756E6F75742053656E736FF7
:101FF0007200D094D180D183D0B3D0B8D0B520D0E6
:10200000BDD0B0D181D182D180D0BED0B9D0BAD02C
:10201000B800D09CD0B5D0BDD18E004D3730322025
:10202000542564004D363030204230205425640061
:102030004D373032203B2564004D37303120542558
:102040006400D092D18BD0BAD0BB00D092D0BAD09D
:10205000BB0052756E6F75742053656E736F72009E
:10206000D092D18BD0B4D0B0D0B2D0B8D182D18CF4
:1020700020D0B5D189D19100D092D0BED0B7D0BEFA
:10208000D0B1D0BDD0BED0B2D0B8D182D18C20D00A
:10209000BFD0B5D187D0B0D182D18C00D09ED09F97
:1020A000D0A6D098D09820D092D09ED097D09ED055
:1020B00091D09DD09ED092D09BD095D09DD098D0DD
:1020C000AF3A00D09FD095D0A7D090D0A2D0AC206E
:1020D000D09DD09020D09FD090D0A3D097D0950005
:1020E0002020D0A1D0BED0BFD0BBD0B03A2000506D
:1020F00061726B696E672E2E2E000000D09ED0B6E6
:10210000D0B8D0B4D0B0D0B9D182D0B500D0BDD085
:10211000B0D187D0B0D0BBD0B020D181D0BCD0B5A9
:10212000D0BDD18B00D184D0B8D0BBD0B0D0BCD082
:10213000B5D0BDD182D0B000D09ED0B6D0B8D0B48A
:10214000D0B0D0B9D182D0B500D0B2D18BD0B3D17C
:1021500080D183D0B7D0BAD0B800D184D0B8D0BBAA
:10216000D0B0D0BCD0B5D0BDD182D0B000D09DD041
:10217000B0D0B3D180D0B5D0B220D181D0BED0BF45
:10218000D0BBD0B000D096D0B4D0B8D182D0B52ECC
:102190002E2E0000D09DD0B0D0B6D0BCD0B8D18209
:1021A000D0B520D0BAD0BDD0BED0BFD0BAD1832058
:1021B000D0B4D0BBD18F00D0BDD0B0D0B3D180D0FF
:1021C000B5D0B2D0B020D181D0BED0BFD0BBD0B0BE
:1021D0002E2E2E0000D092D181D182D0B0D0B2D19B
:1021E0008CD182D0B520D0BFD180D183D182D0BE56
:1021F000D0BA00D0B820D0BDD0B0D0B6D0BCD0B806
:10220000D182D0B520D0BAD0BDD0BED0BFD0BAD147
:102210008300D0B4D0BBD18F20D0BFD180D0BED06E
:10222000B4D0BED0BBD0B6D0B5D0BDD0B8D18F0061
:10223000D09ED0B6D0B8D0B4D0B0D0B9D182D0B5BD
:1022400000D0B7D0B0D0B3D180D183D0B7D0BAD07E
:10225000B820D0BFD180D183D182D0BAD0B0000015
:10226000507265737320427574746F6E00746F20C2
:10227000726573756D65207072696E740000D09E12
:10228000D0B6D0B8D0B4D0B0D0B9D182D0B500D00B
:10229000B2D0BED0B7D0BED0B1D0BDD0BED0B2D0FB
:1022A000BBD0B5D0BDD0B8D18F00D0BFD0B5D1870D
:1022B000D0B0D182D0B800D09ED0B6D0B8D0B4D0F3
:1022C000B0D0B9D182D0B500D18DD0BAD181D18270
:1022D000D180D183D0B7D0B8D0B800D184D0B8D015
:1022E000BBD0B0D0BCD0B5D0BDD182D0B0003E20E4
:1022F00000256C642E25696D00D094D0BBD0B8D079
:10230000BDD0B020D184D0B8D0BBD0B0D0BCD0B577
:10231000D0BDD182D0B0003E2000D09DD0B0D0B88A
:10232000D0B4D0BED0BBD18CD188D0B5D0B520D060
:10233000B7D0B0D0B4D0B0D0BDD0B8D0B5003E206A
:1023400000D09ED0B1D189D0B5D0B520D0B2D18047
:10235000D0B5D0BCD18F20D0BFD0B5D187D0B0D12F
:1023600082D0B800D097D0B0D0BAD0BED0BDD1877F
:10237000D0B5D0BDD0BE003A2000D0A1D187D19138
:10238000D182D187D0B8D0BA20D0BFD0B5D187D034
:10239000B0D182D0B8003A2000313530003A200068
:1023A00035003A20004245443A4550434F532031CE
:1023B00030304B00D09AD0BED0BDD182D180D0BEBB
:1023C000D0BBD18C20D182D0B5D0BCD0BF2E3A208A
:1023D000D092D0BAD0BB00D0A2D0B5D0BCD0BFD0A4
:1023E000B5D180D0B0D182D183D180D0B020D0BC43
:1023F000D0B0D0BAD18100323735003A2000D0A217
:10240000D0B5D0BCD0BFD0B5D180D0B0D182D1832F
:10241000D180D0B020D0BCD0B8D0BD2E0035003A8D
:10242000200045313A204154432031303447542D67
:102430003200D091D09F0047656E65726963003AA3
:102440002000D09FD180D0BED182D0BED0BAD0BE25
:10245000D0BB00312E30003A2000D0A1D0BAD0BE7F
:10246000D180D0BED181D182D18C20D091D09ED0CC
:102470009400323530303030003A2000416E7963BC
:10248000756269632052414D505320312E3400D083
:10249000ADD0BAD181D182D180D183D0B4D0B5D1E1
:1024A00080D18B0031003A2000687474703A2F2F6D
:1024B0006D61726C696E66772E6F726700D0A8D0FE
:1024C000B0D0B9D182D0B0D0BD00323032302D3052
:1024D000332D333100322E302E352E33004D6172C4
:1024E0006C696E00D0A1D182D0B0D182D0B8D18138
:1024F000D182D0B8D0BAD0B020D0BFD180D0B8D09F
:10250000BDD182D0B5D180D0B000D0A2D0B5D1801D
:10251000D0BCD0B8D181D182D0BED180D18B00D0F7
:1025200094D0B0D0BDD0BDD18BD0B520D0BFD0BB62
:10253000D0B0D182D18B00D094D0B0D0BDD0BDD19D
:102540008BD0B520D0BFD180D0B8D0BDD182D0B58E
:10255000D180D0B000D09CD0B5D0BDD18E003F008E
:10256000D09DD0B0D0B7D0B0D0B400D09ED181D162
:1025700082D0B0D0BDD0BED0B2D0B8D182D18C0084
:10258000D0A1D0BCD0B5D0BDD0B020D184D0B8D0EF
:10259000BBD0B0D0BCD0B5D0BDD182D0B000D09F20
:1025A000D180D0B5D0B4D0BDD0B0D0B3D180D0B56B
:1025B000D0B2205045544700D09FD180D0B5D0B480
:1025C000D0BDD0B0D0B3D180D0B5D0B220504C4126
:1025D000005072656865617420437573746F6D0097
:1025E000D09DD0B0D0B7D0B0D0B400D09FD0B5D1AE
:1025F00087D0B0D182D18C20D18120534420D0BA51
:10260000D0B0D180D182D18B004D323100D0A1D059
:10261000BCD0B5D0BDD0B8D182D18C20534420D00D
:10262000BAD0B0D180D182D18300D09E20D0BFD18A
:1026300080D0B8D0BDD182D0B5D180D0B5004D36D4
:10264000303020423000D0A1D0BCD0B5D0BDD0B009
:1026500020D184D0B8D0BBD0B0D0BCD0B5D0BDD103
:1026600082D0B000D09DD0B0D181D182D180D0BEF7
:10267000D0B9D0BAD0B800D0A2D0B5D0BCD0BFD0DD
:10268000B5D180D0B0D182D183D180D0B000D094E8
:10269000D0B2D0B8D0B6D0B5D0BDD0B8D0B500D0BB
:1026A0009FD180D0BED0B4D0BED0BBD0B6D0B8D130
:1026B00082D18C20D0BFD0B5D187D0B0D182D18C7F
:1026C00000D09DD0B5D18220534420D0BAD0B0D113
:1026D00080D182D18B00D09DD0B0D181D182D180E8
:1026E000D0BED0B8D182D18C00D09ED181D182D041
:1026F000B0D0BDD0BED0B2D0B8D182D18C20D0BFA6
:10270000D0B5D187D0B0D182D18C00D09FD0B0D1FC
:1027100083D0B7D0B020D0BFD0B5D187D0B0D182D0
:10272000D0B800D093D0BBD0B0D0B2D0BDD18BD078
:10273000B920D18DD0BAD180D0B0D0BD00000C0D61
:1027400000FE07022603BC01FFFE0AFE08FE050884
:102750000806000040F0C888889878100508080628
:102760000000C0F88888888888F8050505060001FB
:102770002030F830200508080600002070F82020DE
:102780002020E00509090600FF2070A8A8B8888865
:102790007020050606060001E08CEA8C8A0A05090D
:1027A000090600FFF8A88888888888A8F8050A0A1A
:1027B0000600FE205050505088A8A88870030303DC
:1027C00006000340A040FFFFFFFFFFFFFFFFFFFFEA
:1027D000FFFFFFFFFFFFFFFFFFFFFFFF00000006FF
:1027E00005FF0107070602008080808080008003CB
:1027F0000303060105A0A0A005060606000050F888
:102800005050F8500509090600FF2070A8A0702854
:10281000A87020050707060000C8C8102040989837
:1028200005070706000040A0A040A8906801030328
:102830000602058080800309090601FF20404080D0
:1028400080804040200309090601FF80404020208D
:102850002040408005070706000020A8702070A8CF
:10286000200505050600012020F8202002030306AC
:1028700001FFC04080050101060003F802020206C4
:102880000100C0C0050707060000081010204040E6
:1028900080050707060000708898A8C8887003079D
:1028A0000706010040C040404040E0050707060021
:1028B00000708808102040F8050707060000F80897
:1028C000103008887005070706000010305090F897
:1028D0001010050707060000F880F008088870054A
:1028E0000707060000304080F0888870050707065B
:1028F0000000F808101020202005070706000070CF
:1029000088887088887005070706000070888878B6
:10291000081060020505060100C0C000C0C0020624
:10292000060601FFC0C000C0408003050506010186
:102930002040804020050303060002F800F803054C
:102940000506010180402040800507070600007051
:102950008810202000200507070600007088B8A80E
:10296000B88070050707060000708888F888888896
:10297000050707060000F04848704848F0050707BB
:1029800006000070888080808870050707060000B8
:10299000F04848484848F0050707060000F88080DE
:1029A000F08080F8050707060000F88080F080803E
:1029B00080050707060000708880809888700507EA
:1029C00007060000888888F88888880307070601BA
:1029D00000E04040404040E0050707060000381096
:1029E00010101090600507070600008890A0C0A096
:1029F0009088050707060000808080808080F805A9
:102A0000070706000088D8A8888888880507070671
:102A100000008888C8A89888880507070600007005
:102A2000888888888870050707060000F08888F085
:102A300080808005070706000070888888A8906855
:102A4000050707060000F08888F0A09088050707B2
:102A5000060000708880700888700507070600006F
:102A6000F8202020202020050707060000888888FD
:102A70008888887005070706000088888888505075
:102A80002005070706000088888888A8A850050741
:102A90000706000088885020508888050707060030
:102AA0000088885020202020050707060000F8082D
:102AB00010204080F80309090601FFE08080808033
:102AC000808080E00507070600008040402010104D
:102AD000080309090601FFE020202020202020E033
:102AE0000503030600052050880501010600FEF8D5
:102AF000030303060105804020050505060000705C
:102B0000087888780507070600008080F0888888A4
:102B1000F00505050600007080808870050707062F
:102B20000000080878888888780505050600007088
:102B300088F08070050707060000304840E04040FC
:102B4000400507070600FE7088888878087005072A
:102B5000070600008080F088888888030707060140
:102B6000004000C0404040E00409090601FE10009A
:102B70003010101010906005070706000080808854
:102B800090E09088030707060100C04040404040A5
:102B9000E0050505060000D0A8A8A8A805050506BB
:102BA0000000B0C888888805050506000070888880
:102BB00088700507070600FEF0888888F080800589
:102BC00007070600FE788888887808080505050646
:102BD0000000B0C880808005050506000078807080
:102BE00008F00507070600002020F820202018051F
:102BF0000505060000888888986805050506000018
:102C000088888850200505050600008888A8A850F7
:102C100005050506000088502050880507070600B6
:102C2000FE88888850204080050505060000F810C1
:102C30002040F80309090601FF2040404080404041
:102C400040200109090602FF80808080808080800A
:102C5000800309090601FF80404040204040408039
:102C600005030306000248A890FFFFFFFFFFFFFFD8
:102C7000FFFFFFFFFFFFFFFFFFFFFFFFFFFFFFFF64
:102C8000FFFFFFFFFFFFFFFFFFFF0000000605FF44
:102C9000010707060200800080808080800507070A
:102CA0000600FF2070A8A0A87020050707060000F6
:102CB000304840E04048B0050505060000A85088AF
:102CC00050A80507070600008850F820F8202001CA
:102CD00007070602008080800080808004080806C4
:102CE000010070806090906010E003010106010710
:102CF000A00607070600007884B4A4B4847803050E
:102D00000506010460A06000E00505050600002836
:102D100050A05028050303060001F808080301012C
:102D2000060103E00607070600007884B4A4A48423
:102D300078050101060007F8040404060105609007
:102D400090600507070600002020F8202000F80307
:102D5000050506010440A02040E003050506010426
:102D6000C0204020C0030303060105204080050762
:102D7000070600FE88888898E88080050808060015
:102D80000078E8E8E868282828020202060203C062
:102D9000C00302020601FE20C0030505060104402F
:102DA000C04040E003050506010540A04000E005E5
:102DB0000505060000A0502850A0050A0A060000DC
:102DC00040C048506050B0507810050A0A06000014
:102DD00040C048506050A8081038050A0A06000094
:102DE000C0204830E050B0507810050707060000BA
:102DF00020002020408870050A0A060000402000BC
:102E0000708888F8888888050A0A06000010200063
:102E1000708888F8888888050A0A06000020500013
:102E2000708888F8888888050A0A06000068B0005B
:102E3000708888F8888888050909060000500070A5
:102E40008888F8888888050A0A06000020502070C3
:102E50008888F888888805070706000078A0A0F011
:102E6000A0A0B80509090600FE70888080808870DF
:102E70001060050A0A060000402000F88080F080FB
:102E800080F8050A0A060000102000F88080F08013
:102E900080F8050A0A060000205000F88080F080C3
:102EA00080F80509090600005000F88080F0808055
:102EB000F8030A0A060100804000E040404040401C
:102EC000E0030A0A060100204000E0404040404084
:102ED000E0030A0A06010040A000E04040404040F4
:102EE000E0030909060100A000E04040404040E046
:102EF000050707060000704848E8484870050A0AB8
:102F000006000068B0008888C8A8988888050A0A62
:102F100006000040200070888888888870050A0AAA
:102F200006000010200070888888888870050A0ACA
:102F300006000020500070888888888870050A0A7A
:102F400006000068B00070888888888870050909C4
:102F5000060000500070888888888870050505067E
:102F6000000188502050880509090600FF08709864
:102F7000A8A8A8C87080050A0A060000402000889A
:102F8000888888888870050A0A0600001020008852
:102F9000888888888870050A0A0600002050008802
:102FA000888888888870050909060000500088888C
:102FB0008888888870050A0A060000102000888822
:102FC000502020202004070706010080E090909008
:102FD000E080050707060000708890A09088B00583
:102FE0000808060000402000700878887805080866
:102FF0000600001020007008788878050808060090
:1030000000205000700878887805080806000068DD
:10301000B000700878887805070706000050007037
:103020000878887805080806000020502070087885
:103030008878050505060000702870A07805070748
:103040000600FE7088808870106005080806000081
:103050004020007088F080700508080600001020ED
:10306000007088F08070050808060000205000708D
:1030700088F0807005070706000050007088F08017
:1030800070030808060100804000C0404040E00393
:103090000808060100204000C0404040E003080846
:1030A00006010040A000C0404040E00307070601C1
:1030B00000A000C0404040E0050909060000502083
:1030C0005008788888887005080806000068B000F5
:1030D000B0C888888805080806000040200070886D
:1030E000888870050808060000102000708888880D
:1030F0007005080806000020500070888888700558
:10310000080806000068B000708888887005070706
:1031100006000050007088888870050505060001CB
:103120002000F800200505050600007898A8C8F0E2
:103130000508080600004020008888888870050877
:103140000806000010200088888888700508080696
:103150000000205000888888887005070706000056
:1031600050008888888870050A0A0600FE10200032
:10317000888888502040800509090600FE8080F07C
:10318000888888F080800509090600FE500088883C
:10319000885020408000060C00FE0000000000D196
:1031A000D1000700000005070706000050007088E6
:1031B000F0807000060C00FE0000000000CBCF0085
:1031C000050000000505050600008888C8A8C80499
:1031D00005050601008080E090E004050506010079
:1031E000E0107010E005050506000090A8E8A89022
:1031F000040505060100709070509000060C00FE5A
:103200000000000000AFC90008FE00000507070627
:103210000000788888782848880505050600007031
:10322000087888780507070600007080F08888888D
:1032300070050505060000F088F088F00505050614
:103240000000F8808080800506060600FF305050A0
:1032500050F8880505050600007088F080700505A7
:1032600005060000A8702070A8050505060000707E
:10327000883088700505050600008898A8C888056C
:1032800008080600008870008898A8C8880405050A
:1032900006010090A0C0A090050505060000384872
:1032A00048488805050506000088D8A888880505CF
:1032B000050600008888F888880505050600007066
:1032C00088888870050505060000F88888888805C4
:1032D00007070600FEF0888888F08080050505064F
:1032E00000007088808870050505060000F8202021
:1032F00020200507070600FE888888887808700562
:1033000009090600FE202070A8A8A8702020050545
:103310000506000088502050880507070600FE902B
:10332000909090F808080505050600008888780840
:1033300008050505060000A8A8A8A8F805070706BF
:1033400000FEA8A8A8A8F8080800060C00FE0000C7
:10335000000000ABAD0007000000050707060000F5
:10336000888888C8A8A8C80407070601008080804C
:10337000E09090E00507070600007088087808884C
:103380007000060C00FE00000000009AA80007FE76
:1033900000000507070600008890A0C0A0908805DF
:1033A00007070600003848484848488805070706C8
:1033B000000088D8A8888888880507070600008844
:1033C0008888F8888888050707060000708888883C
:1033D000888870050707060000F88888888888882C
:1033E000050707060000F08888F080808005070741
:1033F000060000708880808088700507070600003E
:10340000F820202020202005070706000088888853
:10341000887808700507070600002070A8A8A87023
:103420002005070706000088885020508888050975
:10343000090600FE909090909090F8080805070704
:103440000600008888887808080805070706000035
:10345000A8A8A8A8A8A8F800060C00FE0000000074
:103460000090980007FF000005070706000070881D
:1034700088F8888888050707060000F08080F088B3
:1034800088F0050707060000F08888F08888F005B6
:103490000707060000F88080808080800508080605
:1034A00000FF305050505050F888050707060000C4
:1034B000F88080F08080F8050707060000A8A87053
:1034C0002070A8A805070706000070880870088803
:1034D00070050707060000888898A8C888883F00FC
:1034E000D09DD0B0D187D0B0D0BBD0BE20D0BFD07F
:1034F000B5D187D0B0D182D0B800D09ED182D0BC17
:10350000D0B5D0BDD0B000D09FD0B5D187D0B0D18C
:1035100082D18C0043616E6E6F7420656E7465722B
:10352000207375626469723A2000022E2E00D09CCE
:10353000D0B5D0BDD18E00D092D18BD0BAD0BB0047
:10354000D092D0BAD0BB00D09FD180D0BED0B3D162
:10355000802E20D18DD0BDD0B4D181D182D0BED02B
:10356000BFD18B00D094D0B2D0B8D0B6D0B5D0BD3A
:10357000D0B8D0B5004D383400D092D18BD0BAD06D
:10358000BBD18ED187D0B8D182D18C20D0B4D0B26B
:10359000D0B8D0B3D0B0D182D0B5D0BBD0B800476E
:1035A00032385A00D09FD0B0D180D0BAD0BED0B27D
:1035B000D0BAD0B0205A004732385900D09FD0B08E
:1035C000D180D0BAD0BED0B2D0BAD0B02059004746
:1035D00032385800D09FD0B0D180D0BAD0BED0B24F
:1035E000D0BAD0B020580047323800D09FD0B0D1E8
:1035F00080D0BAD0BED0B2D0BAD0B02058595A007C
:10360000D09CD0B5D0BDD18E00D09DD0B0D0B3D19C
:1036100080D0B5D0B220504C4120D181D0BED0BF97
:10362000D0BBD0BE00D09DD0B0D0B3D180D0B5D06B
:10363000B220504C4120D181D182D0BED0BB00D02D
:103640009DD0B0D0B3D180D0B5D0B2205045544732
:1036500020D181D0BED0BFD0BBD0BE00D09DD0B0D5
:10366000D0B3D180D0B5D0B2205045544720D181BD
:10367000D182D0BED0BB00D0A2D0B5D0BCD0BFD0FC
:10368000B5D180D0B0D182D183D180D0B000D09ECE
:10369000D185D0BBD0B0D0B6D0B4D0B5D0BDD0B825
:1036A000D0B500D09FD180D0B5D0B4D0BDD0B0D0EF
:1036B000B3D180D0B5D0B2205045544700D09FD16F
:1036C00080D0B5D0B4D0BDD0B0D0B3D180D0B5D03B
:1036D000B220504C4100D09AD183D0BBD0B5D1801C
:1036E00000D0A1D182D0BED0BB00D0A1D0BED0BF6F
:1036F000D0BBD0BE00D09CD0B5D0BDD18E004B2069
:10370000D0BFD180D0BED0B4D0B2D0B8D0B6D0B5B2
:10371000D0BDD0B8D18F00D09FD0BED182D0BED086
:10372000BA00D09AD183D0BBD0B5D18000D0A1D17E
:1037300082D0BED0BB00D0A1D0BED0BFD0BBD0BE47
:1037400000D0A1D0BAD0BED180D0BED181D182D19B
:103750008C00D09CD0B5D0BDD18E00202020202060
:1037600020200020202020001FE03FF03FF03FF00D
:103770001FE01FE03FF03FF03FF00FC00780030065
:103780001FE02010201020101020102020102010EA
:1037900030300840048003003FFFF83E00F839F065
:1037A0003831E01831E01821E1E820F3E8207FE823
:1037B0002077E828EE282FDC082FFC082F9E082F02
:1037C0000F08300F18300F18381F383E00F83FFF31
:1037D000F83FFFF83E00F8383F38307E18307C184C
:1037E000287C082C38082F39C82FFFE82FC7E82F6E
:1037F000FFE82739E8203868207C28307C1830FC26
:103800001839F8383E00F83FFFF83FFFF83E00F85F
:10381000380F38341FD8361F982F1F082F9E082FB7
:10382000FC082FDC0827EFC82077E8207FE820F38A
:10383000E821F1E833F0D837F05839E0383E00F8A5
:103840003FFFF83FFFF83E80F83980383781D8379E
:10385000C3D827C7E823C7F821FF88206C08206C4D
:1038600008206C0823FF083FC7882FC7C83787D8B0
:103870003703D83803383E02F83FFFF81FFFF81F20
:10388000FFF804104002082002082004104008201D
:10389000801041001041000820800410400000000A
:1038A0001FFFF81FFFF808009098870057340800A2
:1038B0009AA8D60081330800ABAD38004933080020
:1038C000AFC94E01FB310800CBCF4800B33108002F
:1038D000D1D11E009531D09AD0B0D180D182D0B054
:1038E00020D0B8D0B7D0B2D0BBD0B5D187D0B5D06A
:1038F000BDD0B000D09AD0B0D180D182D0B020D08D
:10390000B2D181D182D0B0D0B2D0BBD0B5D0BDD0F1
:10391000B000D09FD0B5D187D0B0D182D18C20D08B
:10392000BED182D0BCD0B5D0BDD0B5D0BDD0B00056
:103930004D323520500A4D323400D09FD0B0D18363
:10394000D0B7D0B020D0BFD0B5D187D0B0D182D041
:10395000B800000057430000574300004D430000EB
:10396000A0C00000000000000000290A00206279C9
:103970007465733B20637263200053657474696ED1
:1039800067732053746F7265642028004545505258
:103990004F4D206461746173697A65206572726F3E
:1039A000722E0A00290A002062797465733B206335
:1039B000726320002073746F726564207365747481
:1039C000696E677320726574726965766564202814
:1039D000004572723A20454550524F4D20435243A4
:1039E00000202863616C63756C6174656429210A29
:1039F0000020213D2000454550524F4D2043524369
:103A0000206D69736D61746368202D202873746F55
:103A10007265642920004572723A20454550524F24
:103A20004D20496E646578002053697A653A20001C
:103A3000496E6465783A20004572723A20454550D7
:103A4000524F4D2056657273696F6E00204D617242
:103A50006C696E3D563736290A00454550524F4D28
:103A60002076657273696F6E206D69736D61746322
:103A7000682028454550524F4D3D004861726463AF
:103A80006F6465642044656661756C742053657469
:103A900074696E6773204C6F616465640A0000008E
:103AA000FA430000FA430000C0400000F04100006B
:103AB000A0420000A0420000C8430000C043B80B71
:103AC0000000D00700003C000000102700003B2051
:103AD0000020204D363033200020204D343132205C
:103AE000530046696C616D656E742072756E6F75FA
:103AF000742073656E736F723A002055004C004657
:103B0000696C616D656E74206C6F61642F756E6C8D
:103B10006F6164206C656E677468733A0020204D95
:103B2000393030204B004C696E65617220416476FB
:103B3000616E63653A0020440020490020204D3327
:103B4000303420500020440020490020204D3330E4
:103B5000312050005049442073657474696E677356
:103B60003A0020460020420020480020204D3134F9
:103B7000352053004D6174657269616C2068656120
:103B800074757020706172616D65746572733A004E
:103B900020204D36363600456E6473746F70206198
:103BA000646A7573746D656E743A0020204D32300E
:103BB00036205800486F6D65206F66667365743AED
:103BC00000204A0020530020204D32303520420092
:103BD000416476616E6365643A20423C6D696E5F54
:103BE0007365676D656E745F74696D655F75733E4F
:103BF00020533C6D696E5F66656564726174653EF5
:103C000020543C6D696E5F74726176656C5F6665A9
:103C10006564726174653E204A3C6A756E635F64D8
:103C200065763E0020540020520020204D32303472
:103C3000205000416363656C65726174696F6E202A
:103C400028756E6974732F7332293A20503C707254
:103C5000696E745F616363656C3E20523C7265748B
:103C6000726163745F616363656C3E20543C74727F
:103C70006176656C5F616363656C3E0020204D3248
:103C800030312058004D6178696D756D2041636356
:103C9000656C65726174696F6E2028756E697473E6
:103CA0002F7332293A0020204D3230332058004DF6
:103CB0006178696D756D20666565647261746573A0
:103CC0002028756E6974732F73293A0053746570D8
:103CD000732070657220756E69743A0020204D3231
:103CE00030302044300A0020204D32303020440053
:103CF0002044697361626C65640A0046696C616D99
:103D0000656E742073657474696E67733A00202061
:103D10004D3134392043203B20556E69747320693E
:103D20006E2043656C736975730A0020286D6D29D8
:103D3000002020473231202020203B20556E69741E
:103D40007320696E206D6D006F70656E005452496E
:103D5000474745524544003A200066696C616D65ED
:103D60006E74007A325F6D696E007A5F6D696E0005
:103D7000795F6D696E00785F6D696E005265706F76
:103D80007274696E6720656E6473746F70207374EB
:103D9000617475730A00D092D0BED0B7D0B2D18012
:103DA000D0B0D18220D0BDD0B520D183D0B4D0B096
:103DB000D0BBD181D18F000000A0C0000000000066
:103DC00000000000004842000048420000804057C8
:103DD00061726E696E673A20486F6D696E67204246
:103DE000756D702044697669736F72203C20310ACA
:103DF000000202040000A0400000A04000000040BB
:103E000000005C430000574300004D43FFFFFF00EC
:103E10000000010000000100008000555555000021
:103E200000400033333300AAAA2A0049922400003C
:103E3000002000C7711C0099991900D14517005541
:103E40005515003BB1130024491200111111000057
:103E50000010000F0F0F00E3380E0043790D00CC67
:103E6000CC0C00C3300C00E8A20B0064210B00AAAC
:103E7000AA0A00703D0A009DD80900427B09009201
:103E8000240900DCD30800888808001042080000DC
:103E9000000800F0C1070087870700755007007110
:103EA0001C07003EEB0600A1BC06006990060066F8
:103EB000660600703E06006118060017F4050074DF
:103EC000D105005BB00500B2900500627205005597
:103ED00055050078390500B81E0500050505004E9A
:103EE000EC040087D40400A1BD040090A70400499D
:103EF000920400C17D0400EE690400C7560400442A
:103F00004404005C32040008210400411004000055
:103F10000004003FF00300F8E0030026D20300C3D2
:103F2000C30300CCB503003AA803000A9B03003882
:103F30008E0300C08103009F750300D06903005009
:103F40005E03001D53030034480300913D0300331A
:103F500033030016290300381F03009715030030B0
:103F60000C0300030303000BFA020049F10200BA3C
:103F7000E802005CE002002DD802002DD0020059BA
:103F8000C80200B0C0020031B90200DAB10200AAD2
:103F9000AA0200A0A30200BC9C0200FA9502005CE9
:103FA0008F0200DF88020082820200457C02002727
:103FB00076020027700200436A02007C640200D08F
:103FC0005E02003F590200C8530200FFFDFCFAF8F0
:103FD000F6F4F2F0EEECEAE9E7E5E3E1E0DEDCDA64
:103FE000D9D7D5D4D2D0CFCDCBCAC8C7C5C3C2C00C
:103FF000BFBDBCBAB9B7B6B4B3B2B0AFADACAAA985
:10400000A8A6A5A4A2A1A09E9D9C9A9998979594D4
:104010009392908F8E8D8B8A898887868483828104
:10402000807F7E7D7B7A7978777675747372717014
:104030006F6E6D6C6B6A6968676665646362616008
:104040005F5E5D5C5B5A59585857565554535251F0
:1040500050504F4E4D4C4B4A4A49484746464544BE
:1040600043424241403F3E3E3D3C3B3B3A3938387B
:1040700037363535343332323130302F2E2E2D2C29
:104080002B2B2A29292827272625252423232221CB
:104090002120201F1E1E1D1C1C1B1B1A191918185D
:1040A000171616151514131312121111100F0F0EE7
:1040B0000E0D0D0C0C0B0A0A090908080707060665
:1040C000050504040303020201000024F4D4305067
:1040D000C38E20C2A24017828B7011127A910D817B
:1040E0006CD90AA861E108C7586607615143061EEA
:1040F0004B5D05C145A7041A411104093D980371A0
:104100003931034036DB0265339102D430540280EA
:104110002E1D02632CEE01752AC501B028A00110E6
:104120002781018F2564012B244B01E0223401AC4F
:10413000211F018D200D01801FFC00841EED0097C2
:104140001DDF00B81CD200E61BC600201BBC0064AB
:104150001AB200B219A8000A19A0006A189900D171
:1041600017910040178B00B516840031167E00B3FE
:104170001579003A157300C7146F0058146A00EEE1
:104180001366008813630025135E00C7125B006C82
:1041900012570015125400C111510070114F002127
:1041A000114B00D61049008D104700461044000204
:1041B000104200C00F4000800F3E00420F3C00063E
:1041C0000F3B00CB0E3800930E37005C0E350027F6
:1041D0000E3400F30D3200C10D3100900D3000603F
:1041E0000D2E00320D2D00050D2C00D90C2B00AE2C
:1041F0000C2900850C29005C0C2700350C27000ECB
:104200000C2600E80B2400C40B2400A00B23007D27
:104210000B23005A0B2100390B2100180B2000F84A
:104220000A1F00D90A1E00BB0A1E009D0A1D00803D
:104230000A1D00630A1C00470A1B002C0A1B001100
:104240000A1A00F7091A00DD091900C4091900ABA0
:10425000091900920917007B091800630917004C1F
:1042600009160036091600200916000A091500F57E
:10427000081500E0081400CC081400B8081400A4C5
:10428000081400900813007D0812006B08130058F2
:104290000812004608120034081100230811001209
:1042A00008110001081100F0071000E0071000D00D
:1042B000071000C0071000B0070F00A10710009101
:1042C000070E0083070F0074070F0065070E0057E5
:1042D000070E0049070E003B070D002E070E0020B9
:1042E000070D0013070D0006070D00F9060C00ED81
:1042F000060D00E0060C00D4060C00C8060C00BC3D
:10430000060C00B0060C00A4060B0099060C008DEC
:10431000060B0082060B0077060B006C060B006193
:10432000060A0057060B004C060A0042060A00382F
:10433000060A002E060A0024060A001A060A0010C1
:1043400006090007060A00FD050900F4050900EB4F
:10435000050900E2050900D9050900D0050900C7D3
:10436000050900BE050900B5050800AD050800A552
:104370000509009C050800940508008C05080084C8
:104380000508007C050800740508006C0507006539
:104390000508005D050700560508004E05070047A3
:1043A0000507004005080038050700310507002A09
:1043B000050700230507001C050600160507000F6A
:1043C0000507000805060002050700FB040600F5C6
:1043D000040700EE040600E8040600E2040700DB20
:1043E000040600D5040600CF040600C9040600C375
:1043F000040600BD040600B7040600B1040500ACC5
:10440000040600A6040600A00405009B040600950F
:10441000040500900406008A040500850405008058
:104420000406007A04050075040500700405006B9D
:1044300004050066040500610405005C04050057DE
:10444000040500520405004D04050048040500431E
:104450000405003E0404003A04050035040500305C
:104460000404002C04050027040400230405001E96
:104470000404001A04040016040500110404000DCD
:10448000040400090405000404040000040400FC02
:10449000030400F8030400F4030400F0030400EC38
:1044A000030400E8030400E4030400E0030400DC68
:1044B000030400D8030400D4030400D0030400CC98
:1044C000030400C8030300C503030024F404D92037
:1044D0001BC40C5C0E9804C4095F0265077101F4EB
:1044E00005F900FB04B30048048700C103690058C4
:1044F00003550003034500BE023A00840231005315
:10450000022A002902250004022000E4011C00C840
:10451000011900AF01170098011400840113007104
:104520000110006101100051010E0043010D003621
:10453000010B002B010B0020010B00150109000CE1
:1045400001090003010800FB000800F3000800EB6C
:10455000000700E4000600DE000600D8000600D2D6
:10456000000600CC000500C7000500C2000500BD24
:10457000000400B9000400B5000400B1000400AD5F
:10458000000400A9000400A5000300A20003009F8E
:104590000004009B000300980003009500020093B4
:1045A000000300900003008D0002008B00030088D0
:1045B0000002008600020084000300810002007FE8
:1045C0000002007D0002007B0002007900020077FB
:1045D0000001007600020074000200720001007108
:1045E0000002006F0002006D0001006C0002006A12
:1045F000000100690002006700010066000100651B
:10460000000100640002006200010061000100601E
:104610000001005F0002005D0001005C0001005B22
:104620000001005A00010059000100580001005724
:104630000001005600010055000100540001005324
:104640000000005300010052000100510001005021
:104650000001004F0001004E0000004E0001004D1F
:104660000001004C0001004B0000004B0001004A1B
:104670000001004900010048000000480001004717
:104680000001004600000046000100450000004512
:10469000000100440001004300000043000100420B
:1046A0000000004200010041000000410001004004
:1046B0000001003F0000003F0001003E0000003EFE
:1046C0000001003D0000003D0001003C0000003CF6
:1046D0000000003C0001003B0000003B0001003AEC
:1046E0000000003A000100390000003900010038E4
:1046F00000000038000000380001003700000037DB
:1047000000010036000000360000003600010035D0
:1047100000000035000000350001003400000034C6
:1047200000000034000100330000003300000033BB
:1047300000010032000000320000003200010031B0
:1047400000000031000000310001003000000030A6
:10475000000000300001002F0000002F0000002F9B
:104760000000002F0001002E0000002E0000002E8F
:104770000001002D0000002D0000002D0000002D84
:104780000001002C0000002C0000002C0000002C78
:104790000001002B0000002B0000002B0000002B6C
:1047A0000001002A0000002A0000002A0000002A60
:1047B0000001002900000029000000290000002954
:1047C0000000002900010028000000280000002847
:1047D000000000280000002800010027000000273A
:1047E000000000270000002700000027000100262D
:1047F0000000002600000026000000260000002621
:104800000001002500000025000000250000002513
:104810000000002500000025000100240000002405
:1048200000000024000000240000002400010023F8
:1048300000000023000000230000002300000023EC
:1048400000000023000000230001002200000022DD
:1048500000000022000000220000002200000022D0
:1048600000010021000000210000002100000021C3
:1048700000000021000000210000002100010020B4
:1048800000000020000000200000002000000020A8
:104890000000002000000020000000200001001F98
:1048A0000000001F0000001F0000001F0000001F8C
:1048B0000000001F0000001F0001001E0000001E7D
:1048C0000000001E0000001E000000232C0000B8A5
:1048D000220000561800003A0F0000B8080000B18E
:1048E000040000710200003E01000020436F756E5D
:1048F0007420583A0000D0A1D182D0BED0BB004570
:104900003100626564002C2073797374656D2073C7
:10491000746F7070656421204865617465725F49C9
:10492000443A2000D0A0D0B0D0B7D0BED0B3D18010
:10493000D0B5D0B220D0BDD0B520D183D0B4D0B0C6
:10494000D0BBD181D18F0048656174696E672066E4
:1049500061696C6564004D3131322053687574644F
:104960006F776E0070012C0190012701B0012201C8
:10497000C0011D01F00118011002130130020E01E7
:104980006002090190020401C002FF000003FA0066
:104990004003F5008003F000D003EB002004E600A4
:1049A0007004E100E004DC004005D700C005D2003F
:1049B0004006CD00D006C8008007C3003008BE0006
:1049C000F008B900C009B400B00AAF00B00BAA00EB
:1049D000D00CA500000EA000500F9B00C010960048
:1049E0005012910000148C00C0158700B01782008F
:1049F000B0197D00D01B7800001E730040206E00AF
:104A000090226900F024640040275F0090295A003A
:104A1000E02B5500102E500020304B001032460085
:104A2000E033410090353C001037370070383200D9
:104A3000A0392D00B03A2800A03B2300603C1E00A6
:104A4000103D1900903D1400103E0F00703E0A000A
:104A5000C03E0500003F0000403FFBFF803FF6FFE7
:104A6000C03FF1FFD0A3D091D095D093D090D09DEE
:104A7000D098D09520D0A2D095D09FD09BD0900038
:104A8000546865726D616C2052756E617761790052
:104A9000D09ED188D0B8D0B1D0BAD0B03A20D0A270
:104AA00020D0BCD0B0D0BAD1812E004D4158544551
:104AB0004D502074726967676572656400D09ED13D
:104AC00088D0B8D0B1D0BAD0B03A20D0A220D0BCD3
:104AD000D0B8D0BD2E004D494E54454D5020747273
:104AE00069676765726564000A0A0020205A325FB0
:104AF0004D494E3A0020205A5F4D494E3A00202041
:104B0000595F4D494E3A002020585F4D494E3A00BA
:104B10004D383420582059205A204500202F00209D
:104B200042403A0020403A0020573A007C3C3E5E2A
:104B30002B3D3F2F5B5D3B2C2A225C00D09FD0B5E4
:104B4000D187D0B0D182D18C20D0BDD0B020D0BF01
:104B5000D0B0D183D0B7D0B5001000C90210012C5D
:104B6000014001220170011801B0010E01F00104A1
:104B7000015002FA00B002F0003003E600D003DC7E
:104B8000009004D2007005C800A006BE000008B462
:104B900000B009AA00D00BA000600E960060118C36
:104BA000000015820020197800C01D6E00A022644C
:104BB00000B0275A00902C500000314600E0343CF1
:104BC0000010383200903A2800603C1E00A03D14CE
:104BD00000803E0A00203F000043616E6E6F74202B
:104BE0006F70656E20737562646972200053442093
:104BF00063617264206F6B0A006F70656E526F6F35
:104C000074206661696C65640A00766F6C756D6509
:104C10002E696E6974206661696C65640A0053448C
:104C200020696E6974206661696C0A004D32340037
:104C30004D32332025730046696C652073656C65C1
:104C4000637465640A002053697A653A20004669F6
:104C50006C65206F70656E65643A2000454E442097
:104C6000535542524F5554494E450A002220706F09
:104C700073002220706172656E743A2200535542AF
:104C8000524F5554494E452043414C4C207461725B
:104C90006765743A2200747279696E6720746F20B8
:104CA00063616C6C207375622D67636F6465206649
:104CB000696C6573207769746820746F6F206D610B
:104CC0006E79206C6576656C732E204D4158206C92
:104CD0006576656C2069733A310A005772697469A8
:104CE0006E6720746F2066696C653A20002E0A009A
:104CF0006F70656E206661696C65642C2046696C16
:104D0000653A2000667265736800646F696E6700BB
:104D10002066696C653A20004E6F77200000002104
:104D200000240027002A002D00300033000101007C
:104D300000040107010A0100002200250028002BC1
:104D4000002E003100340002010000050108010BB3
:104D500001000020002300260029002C002F003233
:104D60000000010000030106010901050505050712
:104D70000508080808020202020A0A0808040404D6
:104D80000401010101010101010303030303030302
:104D900003040707070C0C0C0C0C0C0C0C02020291
:104DA0000206060606060606060B0B0B0B0B0B0B84
:104DB0000B01021020200808102040102040800223
:104DC0000102010804020101020408102040808051
:104DD00040201008040201800402018040201008D5
:104DE00004020108040201010204081020408001AD
:104DF0000204081020408000000A0B02090C0D0E6E
:104E0000080703040100000000000000000000008B
:104E10000000000000000000000000000000000092
:104E2000000000121110000000000000000000004F
:104E30000000000000000000000000000002736598
:104E4000747570282920636F6D706C657465642EAD
:104E5000007761746368646F675F696E697428299D
:104E600000737465707065722E696E69742829000C
:104E7000656E6473746F70732E696E69742829008F
:104E80007072696E745F6A6F625F74696D65722EAD
:104E9000696E6974282900746865726D616C4D6172
:104EA0006E616765722E696E697428290073657476
:104EB00074696E67732E66697273745F6C6F616478
:104EC00028290075692E72657365745F7374617447
:104ED000757328290075692E696E69742829006325
:104EE0006F6E74726F6C6C657246616E2E73657452
:104EF00075702829002020506C616E6E65724275B5
:104F00006666657242797465733A20002046726560
:104F100065204D656D6F72793A2000436F6D706941
:104F20006C65643A2041756720323220323032306D
:104F30000A00204C61737420557064617465643A92
:104F400020323032302D30332D3331207C204175EA
:104F500074686F723A20616E647277676C646D6E0C
:104F60000A0076322E302E310A004D61726C696E65
:104F70002D4149334D00322E302E352E330A004D4F
:104F800061726C696E0020536F6674776172652080
:104F900052657365740A00205761746368646F67B3
:104FA0002052657365740A002042726F776E206F1D
:104FB00075742052657365740A00204578746572B3
:104FC0006E616C2052657365740A00506F7765726C
:104FD00055700A0073746172740A006175746F25EC
:104FE000632E67004732385859004D313030310058
:104FF0006572726F722077726974696E6720746F60
:105000002066696C650A00446F6E6520736176697D
:105010006E672066696C652E0A004D323900D0AD8E
:10502000D0BDD0B4D181D182D0BED0BFD18B00252C
:105030005320256320256320256320256300205A03
:105040003A0020593A0020583A00656E6473746F34
:105050007073206869743A2000D094D0B2D0B8D070
:10506000B6D0B5D0BDD0B8D0B5202573D0BCD0BC9B
:105070000000D094D0B2D0B8D0B6D0B5D0BDD0B8A2
:10508000D0B520302E31D0BCD0BC00D094D0B2D01E
:10509000B8D0B6D0B5D0BDD0B8D0B52031D0BCD006
:1050A000BC00D094D0B2D0B8D0B6D0B5D0BDD0B8B6
:1050B000D0B5203130D0BCD0BC00D094D0B2D0B864
:1050C000D0B6D0B5D0BDD0B8D0B520D0BFD0BE20DE
:1050D000D0BED181D18FD0BC00D0A1D0BED0BFD0A6
:1050E000BBD0BE20D0BDD0B520D0BDD0B0D0B3D1C4
:1050F00080D0B5D182D0BE00D0ADD0BAD181D1821E
:10510000D180D183D0B4D0B5D18000D094D0B2D0EA
:10511000B8D0B6D0B5D0BDD0B8D0B520D0BFD0BEF5
:10512000205A00D094D0B2D0B8D0B6D0B5D0BDD02F
:10513000B8D0B520D0BFD0BE205900D094D0B2D0C6
:10514000B8D0B6D0B5D0BDD0B8D0B520D0BFD0BEC5
:10515000205800D09FD0B5D187D0B0D182D18C203B
:10516000D18120534420D0BAD0B0D180D182D18B0C
:1051700000D0A8D0B0D0B9D182D0B0D0BD20D0B3AB
:10518000D0BED182D0BED0B22E005072696E74698A
:105190006E672E2E2E00D09FD0B0D180D0BAD18392
:1051A000D0B92025732573257320D181D0BDD0B00F
:1051B000D187D0B0D0BBD0B000220A00556E6B6E44
:1051C0006F776E20636F6D6D616E643A20220020F0
:1051D0004500205A00205900204D39322058002027
:1051E000453A00205A3A0020593A00583A002074B3
:1051F0006F6F206C6F6E6720657874727573696F5E
:105200006E2070726576656E7465640A0020636F47
:105210006C6420657874727573696F6E2070726546
:1052200076656E7465640A002E0A006F70656E20E4
:105230006661696C65642C2046696C653A200000E3
:10524000D4011C0111241FBECFEFD1E2DEBFCDBFC0
:1052500000E00CBF13E0A0E0B2E0E8EDF3E702E00D
:105260000BBF02C007900D92AE35B107D9F729E107
:10527000AEE5B3E001C01D92A23BB207E1F719E22F
:10528000C1E2D9E200E006C021970109802FFE01AA
:105290000F944D39C032D10780E00807A9F70F9469
:1052A00053240D94DA390C94000080910618882359
:1052B000C1F0815080930618EFE4F6E1882351F0A5
:1052C0008150990B2BE1289FF001299FF00D1124AB
:1052D000E850F94E8BE1A4E3B6E101900D928A9576
:1052E000E1F720910618211105C080911018806205
:1052F0008093101881E090E0A0E0B0E0211103C09D
:1053000080E090E0DC018093240B9093250BA09328
:10531000260BB093270B1092170B81E08093340B70
:1053200083E08093660208950C946A341092B2046C
:1053300085E0809331040895CF92DF92EF92FF923F
:1053400023EF34E045E35FE36091B10B7091B20B62
:105350008091B30B9091B40B0F94CD2F6B017C0116
:105360006091561270915712809158129091591273
:105370000F946C2F9B01AC01C701B6010F94CD2F88
:1053800029E732E84AE550E40F94CD2F0F94963880
:105390006093C90B7093CA0B8093CB0B9093CC0B8B
:1053A000FF90EF90DF90CF900895CF93DF93EC01C3
:1053B000CB01BA010F946E2F2AE037ED43E25DE393
:1053C0000F94E23620E030E0A9010F94E8350F9405
:1053D0005B37688379838A839B83DF91CF910895BC
:1053E000CF93DF93EC01CB01BA010F946E2F20E035
:1053F00030E040E251E40F94E23620E030E0A901D1
:105400000F94E835688379838A839B83DF91CF91FA
:105410000895CF93DF93EC01CB01BA010F946E2F67
:105420002AE037ED43E25DE30F94E23620E030E01E
:10543000A9010F94E835688379838A839B83DF9180
:10544000CF910895CF93DF93EC01CB01BA010F9474
:105450006E2F20E030E0A9010F94E835688379834E
:105460008A839B83DF91CF910895CF93DF93EC01E3
:10547000CB01BA010F946E2F20E030E0A9010F9408
:10548000E835688379838A839B83DF91CF91089580
:10549000CF93DF93EC01CB01BA010F946E2F20E084
:1054A00030E04AE754E40F94E23620E030E0A9010E
:1054B0000F94E835688379838A839B83DF91CF914A
:1054C0000895CF93DF93EC01CB01BA010F946E2FB7
:1054D00020E030E048EC52E40F94E23620E030E087
:1054E000A9010F94E835688379838A839B83DF91D0
:1054F000CF910895CF93DF93EC01CB01BA010F94C4
:105500006E2F20E030E0A9010F94E8350F94543756
:1055100079836883DF91CF910895CF93DF93EC0176
:10552000CB01BA010F946E2F29EC38EC48EC5EE306
:105530000F94E23620E030E040E05FE30F94E8357E
:105540000F945B376883DF91CF9108958F929F927C
:10555000AF92BF92CF92DF92EF92FF92CF936B0107
:105560007C0120E030E0A9010F94672F87FDA4C0E3
:1055700067E177EB81E598E3A70196010F94E835A1
:105580006B017C0120E030E0A9010F94672F87FFB9
:1055900098C0C701B601905820E030E048EC52E4D2
:1055A0000F94CD2F20E030E040EA50E40F94E8352E
:1055B00020E030E040E251E40F94E2360F9454379B
:1055C0006B017C0180E28093350B60E280E1C816BC
:1055D00087E2D806E104F1048CF0C701B60120E1AE
:1055E00037E240E050E00F942E39CA01B9012AE0B9
:1055F00030E040E050E00F942E39605D6093360B50
:1056000060E288EEC81683E0D806E104F1048CF06D
:10561000C701B60128EE33E040E050E00F942E3988
:10562000CA01B9012AE030E040E050E00F942E3981
:10563000605D6093370B60E284E6C816D104E10434
:10564000F1048CF0C701B60124E630E040E050E000
:105650000F942E39CA01B9012AE030E040E050E051
:105660000F942E39605D6093380B8AE0882E912C60
:10567000A12CB12CC701B601A50194010F942E39BC
:10568000C62FCA01B901A50194010F942E39605D9E
:105690006093390B8EE280933A0BC05DC0933B0B55
:1056A00085E39BE0CF91FF90EF90DF90CF90BF908C
:1056B000AF909F908F90089567E177EB81E598EB2D
:1056C0005BCF20E030E048EC52E4C701B60168CF80
:1056D0000F946E2F20E030E040E251E40F94E23668
:1056E00020E030E0A9010F94E8350C94A62AFC01D3
:1056F00084910895FC018081089511989091020190
:1057000087FD909591709093000100000000119A20
:1057100011989091020186FD9095917090930001EF
:1057200000000000119A11989091020185FD90955A
:1057300091709093000100000000119A11989091CF
:10574000020184FD9095917090930001000000008B
:10575000119A11989091020183FD90959170909308
:10576000000100000000119A11989091020182FD41
:10577000909591709093000100000000119A11988B
:105780009091020181FD909591709093000100002D
:105790000000119A1198809102018170809300019C
:1057A00000000000119A0895089590E080E00895A7
:1057B000CF93DF93FB01D90190819130E9F09430D0
:1057C000A8F0945090832D913C911197B9016F5F8F
:1057D0007F4F11967C936E93420F531FEA0188838B
:1057E0008D919C918F37910564F406C08C3539F406
:1057F0009C5F9083943039F7DF91CF9108958B337C
:1058000011F781E08083F8CF9091F306E92FF0E063
:10581000E451F94E80839F5F983040F49093F306F3
:105820008091F70A8F5F8093F70A08951092F3062C
:10583000F7CF282F90915B04833021F495FD0FC0A2
:1058400094FD0FC0892F90E0B0E0A0E004C0B695B1
:10585000A795979587952A95D2F78170089581E04D
:10586000089580E00895082E000C990BFC01E5597D
:10587000F24BE491EE2391F0F0E0EE0FFF1FEF5AB0
:10588000F24BA591B4912C918F54924BFC018491D1
:10589000282381E090E021F480E0089580E090E00A
:1058A0000895082E000C990BFC01E559F24BE49188
:1058B000F0E0EE0FFF1FE35EF24BA591B4912C9147
:1058C0008F54924BFC018491822391E009F490E083
:1058D000892F089580915A0681110AC08091900BFA
:1058E000813041F08091101882FB882780F908955B
:1058F00080E0089581E0089580916D1690916E1674
:10590000891B8F7011F40C946A2C81E00895129A0F
:1059100008950F946E2F20E030E0A9010F94E83530
:105920000F945437CB010C946DCACF92DF92EF9253
:10593000FF926B017C0120E030E0A9010F94672FFA
:1059400087FD26C067E177EB81E598E3A701960123
:105950000F94E8356B017C0120E030E0A9010F9441
:10596000672F20E030E040E05FE387FF04C020E0E5
:1059700030E040E05FEBC701B6010F94E8350F94CB
:105980005437CB01FF90EF90DF90CF900C946DCA0D
:1059900067E177EB81E598EBD9CF0F946E2F20E08C
:1059A00030E0A9010F94E8350C94952CEF92FF920A
:1059B0000F931F938EE5E82E85E2F82E10E000E0AD
:1059C00029EE36E24CEB51ED60E675E28BE695E2AE
:1059D0000F94D4121F910F91FF90EF900895EF92C2
:1059E000FF920F931F9380E1E82E8EE1F82E10E0D6
:1059F00000E02FE33EE147E15EE262E17EE18FE11C
:105A00009EE10F94D4121F910F91FF90EF90089593
:105A10002F923F924F925F926F927F928F929F92BE
:105A2000AF92BF92CF92DF92EF92FF920F931F93AC
:105A3000CF93DF93D62FC72FFC0180809180A28067
:105A4000B380C501B40120E831E541E050E00F9496
:105A5000AB35C9016DE671E00F9406396B017C012D
:105A6000C501B40120E13EE040E050E00F94AB35C9
:105A7000CA01B90128E130E040E050E00F94AB35B5
:105A8000362E272E062F172F8CE3482E512C612CF3
:105A9000712CC501B401A30192010F94AB35B62E50
:105AA000A72ECA01B901A30192010F94AB35CB0116
:105AB000C114D10479F1AF92BF927F936F932F926B
:105AC0003F92FF92EF92DF92CF928BEB99E19F93FF
:105AD0008F93CF93DF930F94FE2E8DB79EB70E96C4
